******************************************************************************
                  TI ARM Linker PC v20.2.7                     
******************************************************************************
>> Linked Tue Feb 27 13:16:21 2024

OUTPUT FILE NAME:   <ECE1188_LineFollowerProject.out>
ENTRY POINT SYMBOL: "_c_int00_noargs"  address: 000016c5


MEMORY CONFIGURATION

         name            origin    length      used     unused   attr    fill
----------------------  --------  ---------  --------  --------  ----  --------
  MAIN                  00000000   00040000  000017ee  0003e812  R  X
  INFO                  00200000   00004000  00000000  00004000  R  X
  SRAM_CODE             01000000   00010000  00000633  0000f9cd  RW X
  SRAM_DATA             20000000   00010000  00000633  0000f9cd  RW  


SEGMENT ALLOCATION MAP

run origin  load origin   length   init length attrs members
----------  ----------- ---------- ----------- ----- -------
00000000    00000000    000017f0   000017f0    r-x
  00000000    00000000    000000e4   000000e4    r-- .intvecs
  000000e4    000000e4    000016b2   000016b2    r-x .text
  00001798    00001798    00000020   00000020    r-- .const
  000017b8    000017b8    00000038   00000038    r-- .cinit
20000000    20000000    00000433   00000000    rw-
  20000000    20000000    00000400   00000000    rw- .sysmem
  20000400    20000400    00000028   00000000    rw- .data
  20000428    20000428    0000000b   00000000    rw- .bss
2000fe00    2000fe00    00000200   00000000    rw-
  2000fe00    2000fe00    00000200   00000000    rw- .stack


SECTION ALLOCATION MAP

 output                                  attributes/
section   page    origin      length       input sections
--------  ----  ----------  ----------   ----------------
.intvecs   0    00000000    000000e4     
                  00000000    000000e4     startup_msp432p401r_ccs.obj (.intvecs:retain)

.text      0    000000e4    000016b2     
                  000000e4    000006c8     TExaS.obj (.text)
                  000007ac    0000040c     MotorSimple.obj (.text)
                  00000bb8    0000032c     system_msp432p401r.obj (.text)
                  00000ee4    000002b0     Reflectance.obj (.text)
                  00001194    000001e0     Clock.obj (.text)
                  00001374    000000f8     LaunchPad.obj (.text)
                  0000146c    000000d0     LineFollower.obj (.text)
                  0000153c    0000009c     rtsv7M4_T_le_v4SPD16_eabi.lib : memcpy_t2.asm.obj (.text)
                  000015d8    00000068                                   : copy_decompress_lzss.c.obj (.text:decompress:lzss:__TI_decompress_lzss)
                  00001640    00000044                                   : autoinit.c.obj (.text:__TI_auto_init_nobinit_nopinit:__TI_auto_init_nobinit_nopinit)
                  00001684    00000040     SysTickInts.obj (.text)
                  000016c4    00000034     rtsv7M4_T_le_v4SPD16_eabi.lib : boot_cortex_m.c.obj (.text:_c_int00_noargs:_c_int00_noargs)
                  000016f8    00000028     TA3InputCapture.obj (.text)
                  00001720    00000024     CortexM.obj (.text)
                  00001744    0000001c     rtsv7M4_T_le_v4SPD16_eabi.lib : copy_zero_init.c.obj (.text:decompress:ZI:__TI_zero_init_nomemset:__TI_zero_init_nomemset)
                  00001760    00000012     TimerA1.obj (.text)
                  00001772    0000000e     rtsv7M4_T_le_v4SPD16_eabi.lib : copy_decompress_none.c.obj (.text:decompress:none:__TI_decompress_none)
                  00001780    0000000e     startup_msp432p401r_ccs.obj (.text)
                  0000178e    00000004     rtsv7M4_T_le_v4SPD16_eabi.lib : pre_init.c.obj (.text:_system_pre_init)
                  00001792    00000004                                   : exit.c.obj (.text:abort:abort)

.const     0    00001798    00000020     
                  00001798    00000020     Reflectance.obj (.const:$P$T0$1)

.cinit     0    000017b8    00000038     
                  000017b8    0000000d     (.cinit..data.load) [load image, compression = lzss]
                  000017c5    00000003     --HOLE-- [fill = 0]
                  000017c8    0000000c     (__TI_handler_table)
                  000017d4    00000004     --HOLE-- [fill = 0]
                  000017d8    00000008     (.cinit..bss.load) [load image, compression = zero_init]
                  000017e0    00000010     (__TI_cinit_table)

.init_array 
*          0    00000000    00000000     UNINITIALIZED

.binit     0    00000000    00000000     

.sysmem    0    20000000    00000400     UNINITIALIZED
                  20000000    00000010     rtsv7M4_T_le_v4SPD16_eabi.lib : memory.c.obj (.sysmem)
                  20000010    000003f0     --HOLE--

.data      0    20000400    00000028     UNINITIALIZED
                  20000400    00000018     Clock.obj (.data)
                  20000418    0000000c     TExaS.obj (.data)
                  20000424    00000004     system_msp432p401r.obj (.data)

.bss       0    20000428    0000000b     UNINITIALIZED
                  20000428    00000004     (.common:PeriodicTask2)
                  2000042c    00000004     (.common:position)
                  20000430    00000001     (.common:LogicData)
                  20000431    00000001     (.common:input)
                  20000432    00000001     (.common:timingVar)

.stack     0    2000fe00    00000200     UNINITIALIZED
                  2000fe00    00000004     rtsv7M4_T_le_v4SPD16_eabi.lib : boot_cortex_m.c.obj (.stack)
                  2000fe04    000001fc     --HOLE--

__llvm_prf_cnts 
*          0    20000000    00000000     UNINITIALIZED

MODULE SUMMARY

       Module                        code   ro data   rw data
       ------                        ----   -------   -------
    .\
       TExaS.obj                     1736   0         34     
       MotorSimple.obj               1036   0         0      
       system_msp432p401r.obj        812    0         8      
       Reflectance.obj               688    32        0      
       Clock.obj                     480    0         48     
       LaunchPad.obj                 248    0         0      
       startup_msp432p401r_ccs.obj   14     228       0      
       LineFollower.obj              208    0         12     
       SysTickInts.obj               64     0         0      
       TA3InputCapture.obj           40     0         0      
       CortexM.obj                   36     0         0      
       TimerA1.obj                   18     0         0      
    +--+-----------------------------+------+---------+---------+
       Total:                        5380   260       102    
                                                             
    C:\ti\ccs1260\ccs\tools\compiler\ti-cgt-arm_20.2.7.LTS\lib\rtsv7M4_T_le_v4SPD16_eabi.lib
       memcpy_t2.asm.obj             156    0         0      
       copy_decompress_lzss.c.obj    104    0         0      
       autoinit.c.obj                68     0         0      
       boot_cortex_m.c.obj           52     0         0      
       copy_zero_init.c.obj          28     0         0      
       copy_decompress_none.c.obj    14     0         0      
       exit.c.obj                    4      0         0      
       pre_init.c.obj                4      0         0      
    +--+-----------------------------+------+---------+---------+
       Total:                        430    0         0      
                                                             
       Heap:                         0      0         2048   
       Stack:                        0      0         1024   
       Linker Generated:             0      49        0      
    +--+-----------------------------+------+---------+---------+
       Grand Total:                  5810   309       3174   


LINKER GENERATED COPY TABLES

__TI_cinit_table @ 000017e0 records: 2, size/record: 8, table size: 16
	.data: load addr=000017b8, load size=0000000d bytes, run addr=20000400, run size=00000028 bytes, compression=lzss
	.bss: load addr=000017d8, load size=00000008 bytes, run addr=20000428, run size=0000000b bytes, compression=zero_init


LINKER GENERATED HANDLER TABLE

__TI_handler_table @ 000017c8 records: 3, size/record: 4, table size: 12
	index: 0, handler: __TI_decompress_lzss
	index: 1, handler: __TI_decompress_none
	index: 2, handler: __TI_zero_init


GLOBAL SYMBOLS: SORTED ALPHABETICALLY BY Name 

address   name                                   
-------   ----                                   
0000178d  ADC14_IRQHandler                       
000004f1  ADC_Init                               
0000178d  AES256_IRQHandler                      
0000178d  BusFault_Handler                       
00001793  C$$EXIT                                
0000178d  COMP_E0_IRQHandler                     
0000178d  COMP_E1_IRQHandler                     
20000408  CPMwait                                
0000178d  CS_IRQHandler                          
20000400  ClockFrequency                         
000012e9  Clock_Delay1ms                         
000012bf  Clock_Delay1us                         
000012ab  Clock_GetFreq                          
00001195  Clock_Init48MHz                        
20000414  Crystalstable                          
0000178d  DMA_ERR_IRQHandler                     
0000178d  DMA_INT0_IRQHandler                    
0000178d  DMA_INT1_IRQHandler                    
0000178d  DMA_INT2_IRQHandler                    
0000178d  DMA_INT3_IRQHandler                    
0000178d  DebugMon_Handler                       
0000178d  Default_Handler                        
00001721  DisableInterrupts                      
0000178d  EUSCIA0_IRQHandler                     
0000178d  EUSCIA1_IRQHandler                     
0000178d  EUSCIA2_IRQHandler                     
0000178d  EUSCIA3_IRQHandler                     
0000178d  EUSCIB0_IRQHandler                     
0000178d  EUSCIB1_IRQHandler                     
0000178d  EUSCIB2_IRQHandler                     
0000178d  EUSCIB3_IRQHandler                     
00001727  EnableInterrupts                       
00001737  EndCritical                            
0000178d  FLCTL_IRQHandler                       
0000178d  FPU_IRQHandler                         
0000178d  HardFault_Handler                      
20000410  IFlags                                 
00001375  LaunchPad_Init                         
000013e5  LaunchPad_Input                        
00001403  LaunchPad_LED                          
00001421  LaunchPad_Output                       
000000e5  LogicAnalyzer                          
000000ef  LogicAnalyzer_P1                       
000001c5  LogicAnalyzer_P10                      
000000fd  LogicAnalyzer_P2                       
000001d3  LogicAnalyzer_P27_P26_P82_P92_P104_P105
0000010b  LogicAnalyzer_P2_7654                  
0000011b  LogicAnalyzer_P3                       
00000129  LogicAnalyzer_P4                       
00000147  LogicAnalyzer_P4_765320                
00000137  LogicAnalyzer_P4_765432                
0000017f  LogicAnalyzer_P5                       
0000020b  LogicAnalyzer_P55_P54_P27_P26_P37_P36  
0000018d  LogicAnalyzer_P6                       
0000019b  LogicAnalyzer_P7                       
000001a9  LogicAnalyzer_P8                       
000001b7  LogicAnalyzer_P9                       
20000430  LogicData                              
0000178d  MemManage_Handler                      
000009df  Motor_BackwardSimple                   
00000947  Motor_ForwardSimple                    
000007ad  Motor_InitSimple                       
00000a77  Motor_LeftSimple                       
00000b19  Motor_RightSimple                      
00000927  Motor_StopSimple                       
0000178d  NMI_Handler                            
0000178d  PCM_IRQHandler                         
0000178d  PORT1_IRQHandler                       
0000178d  PORT2_IRQHandler                       
0000178d  PORT3_IRQHandler                       
0000178d  PORT4_IRQHandler                       
0000178d  PORT5_IRQHandler                       
0000178d  PORT6_IRQHandler                       
0000178d  PSS_IRQHandler                         
0000178d  PendSV_Handler                         
20000428  PeriodicTask2                          
000002b9  PeriodicTask2_Init                     
00000333  PeriodicTask2_Stop                     
2000040c  Postwait                               
20000404  Prewait                                
0000178d  RTC_C_IRQHandler                       
00000fbd  Reflectance_Center                     
0000113d  Reflectance_End                        
00000ee5  Reflectance_Init                       
00001045  Reflectance_Position                   
00000f55  Reflectance_Read                       
00001101  Reflectance_Start                      
00001781  Reset_Handler                          
0000178d  SVC_Handler                            
00000235  Scope                                  
0000172d  StartCritical                          
000014e3  SysTick_Handler                        
000014e3  SysTick_Handler                        
00001685  SysTick_Init                           
20000424  SystemCoreClock                        
00000bb9  SystemCoreClockUpdate                  
00000e2d  SystemInit                             
00000323  T32_INT1_IRQHandler                    
00000323  T32_INT1_IRQHandler                    
0000178d  T32_INT2_IRQHandler                    
0000178d  T32_INTC_IRQHandler                    
0000178d  TA0_0_IRQHandler                       
0000178d  TA0_N_IRQHandler                       
00001771  TA1_0_IRQHandler                       
00001771  TA1_0_IRQHandler                       
0000178d  TA1_N_IRQHandler                       
0000178d  TA2_0_IRQHandler                       
0000178d  TA2_N_IRQHandler                       
00001711  TA3_0_IRQHandler                       
00001711  TA3_0_IRQHandler                       
00001713  TA3_N_IRQHandler                       
00001713  TA3_N_IRQHandler                       
00000485  TExaS_Clear0                           
00000491  TExaS_Clear1                           
000004a5  TExaS_Clear2                           
000004b1  TExaS_Clear3                           
000004bd  TExaS_Clear4                           
000004bf  TExaS_Clear5                           
000004cb  TExaS_Clear6                           
000005b5  TExaS_Init                             
2000041c  TExaS_ScopeErrConflict                 
20000418  TExaS_ScopeErrLostData                 
20000420  TExaS_ScopeWrnReconfig                 
00000413  TExaS_Set                              
0000042b  TExaS_Set0                             
00000437  TExaS_Set1                             
00000443  TExaS_Set2                             
0000044f  TExaS_Set3                             
0000045b  TExaS_Set4                             
0000045d  TExaS_Set5                             
00000475  TExaS_Set6                             
00000741  TExaS_Stop                             
000003c9  TExaS_Task0                            
000003d5  TExaS_Task1                            
000003e1  TExaS_Task2                            
000003ed  TExaS_Task3                            
000003f9  TExaS_Task4                            
000003fb  TExaS_Task5                            
00000407  TExaS_Task6                            
00001761  TimerA1_Init                           
0000176f  TimerA1_Stop                           
00001705  TimerA3Capture_Init01                  
00001715  TimerA3Capture_Init02                  
0000039d  UART_InChar                            
00000343  UART_Init                              
000003ad  UART_OutChar                           
0000178d  UsageFault_Handler                     
4000480c  WDTCTL_SYM                             
0000178d  WDT_A_IRQHandler                       
0000173f  WaitForInterrupt                       
20010000  __STACK_END                            
00000200  __STACK_SIZE                           
00000400  __SYSMEM_SIZE                          
000017e0  __TI_CINIT_Base                        
000017f0  __TI_CINIT_Limit                       
000017c8  __TI_Handler_Table_Base                
000017d4  __TI_Handler_Table_Limit               
00001641  __TI_auto_init_nobinit_nopinit         
000015d9  __TI_decompress_lzss                   
00001773  __TI_decompress_none                   
ffffffff  __TI_pprof_out_hndl                    
ffffffff  __TI_prof_data_size                    
ffffffff  __TI_prof_data_start                   
00000000  __TI_static_base__                     
00001745  __TI_zero_init_nomemset                
0000153d  __aeabi_memcpy                         
0000153d  __aeabi_memcpy4                        
0000153d  __aeabi_memcpy8                        
ffffffff  __binit__                              
ffffffff  __c_args__                             
UNDEFED   __mpu_init                             
2000fe00  __stack                                
20000000  __start___llvm_prf_cnts                
20000000  __stop___llvm_prf_cnts                 
000016c5  _c_int00_noargs                        
20000000  _sys_memory                            
UNDEFED   _system_post_cinit                     
0000178f  _system_pre_init                       
00001793  abort                                  
ffffffff  binit                                  
000012b1  delay                                  
20000431  input                                  
00000000  interruptVectors                       
0000146d  main                                   
0000153d  memcpy                                 
2000042c  position                               
000016f9  ta3dummy                               
20000432  timingVar                              


GLOBAL SYMBOLS: SORTED BY Symbol Address 

address   name                                   
-------   ----                                   
00000000  __TI_static_base__                     
00000000  interruptVectors                       
000000e5  LogicAnalyzer                          
000000ef  LogicAnalyzer_P1                       
000000fd  LogicAnalyzer_P2                       
0000010b  LogicAnalyzer_P2_7654                  
0000011b  LogicAnalyzer_P3                       
00000129  LogicAnalyzer_P4                       
00000137  LogicAnalyzer_P4_765432                
00000147  LogicAnalyzer_P4_765320                
0000017f  LogicAnalyzer_P5                       
0000018d  LogicAnalyzer_P6                       
0000019b  LogicAnalyzer_P7                       
000001a9  LogicAnalyzer_P8                       
000001b7  LogicAnalyzer_P9                       
000001c5  LogicAnalyzer_P10                      
000001d3  LogicAnalyzer_P27_P26_P82_P92_P104_P105
00000200  __STACK_SIZE                           
0000020b  LogicAnalyzer_P55_P54_P27_P26_P37_P36  
00000235  Scope                                  
000002b9  PeriodicTask2_Init                     
00000323  T32_INT1_IRQHandler                    
00000323  T32_INT1_IRQHandler                    
00000333  PeriodicTask2_Stop                     
00000343  UART_Init                              
0000039d  UART_InChar                            
000003ad  UART_OutChar                           
000003c9  TExaS_Task0                            
000003d5  TExaS_Task1                            
000003e1  TExaS_Task2                            
000003ed  TExaS_Task3                            
000003f9  TExaS_Task4                            
000003fb  TExaS_Task5                            
00000400  __SYSMEM_SIZE                          
00000407  TExaS_Task6                            
00000413  TExaS_Set                              
0000042b  TExaS_Set0                             
00000437  TExaS_Set1                             
00000443  TExaS_Set2                             
0000044f  TExaS_Set3                             
0000045b  TExaS_Set4                             
0000045d  TExaS_Set5                             
00000475  TExaS_Set6                             
00000485  TExaS_Clear0                           
00000491  TExaS_Clear1                           
000004a5  TExaS_Clear2                           
000004b1  TExaS_Clear3                           
000004bd  TExaS_Clear4                           
000004bf  TExaS_Clear5                           
000004cb  TExaS_Clear6                           
000004f1  ADC_Init                               
000005b5  TExaS_Init                             
00000741  TExaS_Stop                             
000007ad  Motor_InitSimple                       
00000927  Motor_StopSimple                       
00000947  Motor_ForwardSimple                    
000009df  Motor_BackwardSimple                   
00000a77  Motor_LeftSimple                       
00000b19  Motor_RightSimple                      
00000bb9  SystemCoreClockUpdate                  
00000e2d  SystemInit                             
00000ee5  Reflectance_Init                       
00000f55  Reflectance_Read                       
00000fbd  Reflectance_Center                     
00001045  Reflectance_Position                   
00001101  Reflectance_Start                      
0000113d  Reflectance_End                        
00001195  Clock_Init48MHz                        
000012ab  Clock_GetFreq                          
000012b1  delay                                  
000012bf  Clock_Delay1us                         
000012e9  Clock_Delay1ms                         
00001375  LaunchPad_Init                         
000013e5  LaunchPad_Input                        
00001403  LaunchPad_LED                          
00001421  LaunchPad_Output                       
0000146d  main                                   
000014e3  SysTick_Handler                        
000014e3  SysTick_Handler                        
0000153d  __aeabi_memcpy                         
0000153d  __aeabi_memcpy4                        
0000153d  __aeabi_memcpy8                        
0000153d  memcpy                                 
000015d9  __TI_decompress_lzss                   
00001641  __TI_auto_init_nobinit_nopinit         
00001685  SysTick_Init                           
000016c5  _c_int00_noargs                        
000016f9  ta3dummy                               
00001705  TimerA3Capture_Init01                  
00001711  TA3_0_IRQHandler                       
00001711  TA3_0_IRQHandler                       
00001713  TA3_N_IRQHandler                       
00001713  TA3_N_IRQHandler                       
00001715  TimerA3Capture_Init02                  
00001721  DisableInterrupts                      
00001727  EnableInterrupts                       
0000172d  StartCritical                          
00001737  EndCritical                            
0000173f  WaitForInterrupt                       
00001745  __TI_zero_init_nomemset                
00001761  TimerA1_Init                           
0000176f  TimerA1_Stop                           
00001771  TA1_0_IRQHandler                       
00001771  TA1_0_IRQHandler                       
00001773  __TI_decompress_none                   
00001781  Reset_Handler                          
0000178d  ADC14_IRQHandler                       
0000178d  AES256_IRQHandler                      
0000178d  BusFault_Handler                       
0000178d  COMP_E0_IRQHandler                     
0000178d  COMP_E1_IRQHandler                     
0000178d  CS_IRQHandler                          
0000178d  DMA_ERR_IRQHandler                     
0000178d  DMA_INT0_IRQHandler                    
0000178d  DMA_INT1_IRQHandler                    
0000178d  DMA_INT2_IRQHandler                    
0000178d  DMA_INT3_IRQHandler                    
0000178d  DebugMon_Handler                       
0000178d  Default_Handler                        
0000178d  EUSCIA0_IRQHandler                     
0000178d  EUSCIA1_IRQHandler                     
0000178d  EUSCIA2_IRQHandler                     
0000178d  EUSCIA3_IRQHandler                     
0000178d  EUSCIB0_IRQHandler                     
0000178d  EUSCIB1_IRQHandler                     
0000178d  EUSCIB2_IRQHandler                     
0000178d  EUSCIB3_IRQHandler                     
0000178d  FLCTL_IRQHandler                       
0000178d  FPU_IRQHandler                         
0000178d  HardFault_Handler                      
0000178d  MemManage_Handler                      
0000178d  NMI_Handler                            
0000178d  PCM_IRQHandler                         
0000178d  PORT1_IRQHandler                       
0000178d  PORT2_IRQHandler                       
0000178d  PORT3_IRQHandler                       
0000178d  PORT4_IRQHandler                       
0000178d  PORT5_IRQHandler                       
0000178d  PORT6_IRQHandler                       
0000178d  PSS_IRQHandler                         
0000178d  PendSV_Handler                         
0000178d  RTC_C_IRQHandler                       
0000178d  SVC_Handler                            
0000178d  T32_INT2_IRQHandler                    
0000178d  T32_INTC_IRQHandler                    
0000178d  TA0_0_IRQHandler                       
0000178d  TA0_N_IRQHandler                       
0000178d  TA1_N_IRQHandler                       
0000178d  TA2_0_IRQHandler                       
0000178d  TA2_N_IRQHandler                       
0000178d  UsageFault_Handler                     
0000178d  WDT_A_IRQHandler                       
0000178f  _system_pre_init                       
00001793  C$$EXIT                                
00001793  abort                                  
000017c8  __TI_Handler_Table_Base                
000017d4  __TI_Handler_Table_Limit               
000017e0  __TI_CINIT_Base                        
000017f0  __TI_CINIT_Limit                       
20000000  __start___llvm_prf_cnts                
20000000  __stop___llvm_prf_cnts                 
20000000  _sys_memory                            
20000400  ClockFrequency                         
20000404  Prewait                                
20000408  CPMwait                                
2000040c  Postwait                               
20000410  IFlags                                 
20000414  Crystalstable                          
20000418  TExaS_ScopeErrLostData                 
2000041c  TExaS_ScopeErrConflict                 
20000420  TExaS_ScopeWrnReconfig                 
20000424  SystemCoreClock                        
20000428  PeriodicTask2                          
2000042c  position                               
20000430  LogicData                              
20000431  input                                  
20000432  timingVar                              
2000fe00  __stack                                
20010000  __STACK_END                            
4000480c  WDTCTL_SYM                             
ffffffff  __TI_pprof_out_hndl                    
ffffffff  __TI_prof_data_size                    
ffffffff  __TI_prof_data_start                   
ffffffff  __binit__                              
ffffffff  __c_args__                             
ffffffff  binit                                  
UNDEFED   __mpu_init                             
UNDEFED   _system_post_cinit                     

[188 symbols]
